:100000000C9434000C9451000C9451000C94510049
:100010000C9451000C9451000C9451000C9451001C
:100020000C9451000C9451000C9451000C9451000C
:100030000C9451000C9451000C9451000C945100FC
:100040000C9451000C9451000C9451000C945100EC
:100050000C9451000C9451000C9451000C945100DC
:100060000C9451000C94510011241FBECFEFD8E026
:10007000DEBFCDBF11E0A0E0B1E0E0EDF3E002C0F3
:1000800005900D92A233B107D9F721E0A2E3B1E0C8
:1000900001C01D92A034B207E1F70E94AC010C949C
:1000A000E6010C9400009C018AE090E090933B01F3
:1000B00080933A0181E090E090933D0180933C0170
:1000C00010923F0110923E0181EE94E00197F1F70A
:1000D00000C00000E0913E01F0913F01E25DFE4F63
:1000E000808188B960913A0170913B01C9010E94F9
:1000F000BE0160913C0170913D010E94BE01FB0177
:10010000EC5DFE4F80818BB980913A0190913B016B
:10011000AC01440F551F880F991F880F991F880F36
:10012000991F840F951F90933B0180933A01809112
:100130003C0190913D01AC01440F551F880F991F60
:10014000880F991F880F991F840F951F90933D0169
:1001500080933C0180913E0190913F0101969093E4
:100160003F0180933E0104970CF4AECF81EE94E002
:100170000197F1F700C00000089580EF84B98FE087
:1001800085B910923F0110923E0140E050E023B14A
:1001900030E0042E02C0359527950A94E2F7C90194
:1001A0008170992720FD35C05093010140930001D3
:1001B0002FE024B920EF25B924E030E030933F014F
:1001C00020933E011C9936C00BC023B130E0042EB1
:1001D00002C0359527950A94E2F720FD10C002C0B1
:1001E00044E050E044505109509303014093020110
:1001F00081E090E0909333018093320108954F5F46
:100200005F4F50933F0140933E0148305105E9F65E
:100210001AC040913E0150913F014F5F5F4F509394
:100220003F0140933E01443051050CF4B0CF80E0D3
:1002300090E0089525E030E030933F0120933E01A7
:1002400045E050E0C2CF20913E0130913F012F5F49
:100250003F4F30933F0120933E0108950F931F932A
:10026000E0910001F0910101EE0FFF1FEE0FFF1F63
:100270008091020190910301E80FF91FEE0FFF1F1B
:10028000EC5FFE4F40815181509335014093340122
:100290004F3F2FEF520779F4109236011092370139
:1002A00010923801109239018091320190913301FE
:1002B000892B81F53EC08091320190913301892BC9
:1002C000C1F18091360190913701A0913801B09130
:1002D0003901880F991FAA1FBB1F8C019D01000FB8
:1002E000111F221F331F000F111F221F331F800FEA
:1002F000911FA21FB31F052E000C660B770B840FF6
:10030000951FA61FB71F803127E29207A105B105EF
:1003100084F403C08FEF9FEFDC018093360190934C
:100320003701A0933801B093390110923301109234
:1003300032011F910F910895CF93DF93C6E3D1E06F
:1003400004C0888199810E9453000E94BD00892BBE
:10035000C1F7DF91CF9108958FE087B98FE78AB910
:10036000809124018BB9C6E3D1E00E949C010E94D8
:100370002E01888199810E945300F7CF97FB072EA9
:1003800016F4009407D077FD09D00E94D20107FC33
:1003900005D03EF4909581959F4F08957095619595
:1003A0007F4F0895AA1BBB1B51E107C0AA1FBB1FAB
:1003B000A617B70710F0A61BB70B881F991F5A95F1
:1003C000A9F780959095BC01CD010895F894FFCFD1
:1003D00003000100070008000900FAFF04000500FF
:1003E0000600FBFF010002000300FCFFFFFF00000E
:1003F000FEFFFDFF3F065B4F666D7D077F6F070BBE
:020400000D0EDF
:00000001FF
