S00B00004C43442E7372656346
S11300000C9434000C9451000C9451000C94510045
S11300100C9451000C9451000C9451000C94510018
S11300200C9451000C9451000C9451000C94510008
S11300300C9451000C9451000C9451000C945100F8
S11300400C9451000C9451000C9451000C945100E8
S11300500C9451000C9451000C9451000C945100D8
S11300600C9451000C94510011241FBECFEFD8E022
S1130070DEBFCDBF11E0A0E0B1E0E4E7F1E002C0F3
S113008005900D92AA31B107D9F721E0AAE1B1E0B8
S113009001C01D92AC31B207E1F70E94A3000C9499
S11300A0B8000C94000085B95A985998589A83EC72
S11300B099E00197F1F700C000005898089585B9B8
S11300C05A9A5998589A83EC99E00197F1F700C02D
S11300D000005898089588E30E9453008EE00E941F
S11300E0530086E00E94530081E00E94530080E8A0
S11300F00E9453000895CF93DF93EC0110921B01EB
S113010010921A010FC0FE01E80FF91F80810E94AE
S11301105F0080911A0190911B01019690931B013D
S113012080931A01FE0101900020E9F73197EC1B3E
S1130130FD0B80911A0190911B018E179F0718F3F4
S1130140DF91CF9108958FEF84B987E08AB90E9437
S11301506B0081E80E94530080E091E00E947B00E4
S113016084EC0E94530080E191E00E947B00F1CF77
S1070170F894FFCF2D
S11301745445535445202D20454C5953534F4E0058
S10D018432333A30343A34330000C9
S9030000FC
